:1000000057C0FCC270C06FC06EC06DC06CC06BC00A
:100010006AC069C068C067C066C065C064C00501C9
:100020000906A101050719E029E715002501750159
:1000300095088102950175082565190029658100DB
:10004000C004030904180366006C0069007000779F
:10005000006F0072006B002E006E006C001E0331FA
:10006000002D004B00650079002D004B00650079E4
:100070000062006F00610072006400120110010054
:10008000000008424231E1000101020001090222A0
:1000900000010100801909040000010300000009AB
:1000A00021010100012223000705810308000A0045
:1000B00011241FBECFE5D2E0DEBFCDBF10E0A0E629
:1000C000B0E0EAEBF8E002C005900D92A436B1076B
:1000D000D9F710E0A4E6B0E001C01D92A33AB10741
:1000E000E1F739D0E8C38CCFFC0186E690E090932D
:1000F00088008093870080818076803251F58181ED
:100100008130B1F490916900992311F080E007C02B
:1001100080916A00813011F08FE201C080E39F5F1F
:1001200090936900109266008093670082E00895C2
:10013000823041F488E690E09093880080938700B5
:1001400081E008958A3029F483818093680080E0FB
:10015000089580E008950F931F93CF93DF93E19963
:10016000FECF1FBA1EBAE09A8DB38F3F09F081BF50
:10017000C3D0B89A20E04DE150E104C0A895CA016F
:100180000197F1F72150D1F7B8988EE028E130E0DF
:100190000FB6F894A89521BD0FBE81BDC39A8BE020
:1001A00080BF7894C1E0D0E004E011E0A895D1D000
:1001B0008091620084FF1AC0909169009230B0F47F
:1001C000992311F080E007C080916A00813011F01E
:1001D0008FE201C080E39F5F9093690010926600F8
:1001E0008093670062E086E690E090D086B390E06E
:1001F00023E0969587952A95E1F78C279D27982FE0
:10020000917080916A00981751F080916B00813055
:1002100031F490936A0010926B001092690008B656
:1002200002FEC4CF08BF80916400909165000196E2
:100230009093650080936400039708F4B7CF109201
:1002400065001092640010936B00B0CFDF92EF92C4
:10025000FF920F931F93CF93DF9300E040E8D42EDB
:1002600038E0E32EF12C1D2D100F11BFB4D1EC019D
:1002700089E0C433D8070CF0102FD6940894E10815
:10028000F108E114F10411F0012FEDCF115011BF6D
:100290001F5FE12EFF240894E11CF11C13C09BD1C9
:1002A0009C012453394037FF03C0309521953F4FBF
:1002B0002C173D0714F09E0101C011B781B78F5F65
:1002C00081BFE90181B790E0E816F90644F711BF54
:1002D00081B7E199FECF1CBA1FBA1EBA8DBB0FB60B
:1002E000F894E29AE19A0FBEDF91CF911F910F919E
:1002F000FF90EF90DF90089585B7836085BF8BB73F
:1003000080648BBF83EC8093790008951F93DC0198
:10031000162F8091620084FF0AC08091790098E8CE
:10032000892780937900912FEAE7F0E007C08AE5FA
:1003300080936200F8CF8D91819391509923D9F7E2
:10034000612F8AE790E043D11C5F109362001F91F8
:1003500008950F931F93CF93DF93909189001916FF
:100360000CF0B7C020918600809185008D3209F095
:10037000A6C08AE5809361009B3009F0A0C0CCE064
:10038000D0E0C21BD109C357DF4F8881807609F0C6
:1003900088C0109277008981882359F410927800E0
:1003A00087E790E0909388008093870090E822E0B0
:1003B0007FC0853021F48A8180938A0070C08630A6
:1003C00009F052C08B81813049F48BE790E0909323
:1003D00088008093870090EC22E16AC0823049F463
:1003E0008DE890E0909388008093870090EC22E263
:1003F0005FC0833019F58A81882349F481E490E055
:10040000909388008093870090EC24E051C0813065
:1004100049F485E490E0909388008093870090EC05
:1004200028E146C0823009F041C08DE590E090930C
:1004300088008093870090EC2EE13AC0813249F425
:100440008FE990E0909388008093870090EC29E0FA
:100450002FC0823259F58EE190E09093880080930E
:10046000870090EC23E224C0883019F48CE890E0F7
:100470000AC0893021F48A8180938C0010C08A30B0
:1004800049F487E790E0909388008093870090E894
:1004900021E00EC08B3019F483EC8093790090E852
:1004A00006C0CE0121DE282F90E802C090EC20E0AB
:1004B0008F81882339F48E81821728F003C090E859
:1004C00080E001C0822F90936D00809360001092B5
:1004D00089008091610084FF49C0809160008F3F56
:1004E00009F444C0182F893008F018E0811B80936C
:1004F000600080916D0080FD02C00BE401C003EC40
:100500008F5F80936D00209187003091880086FD79
:1005100005C0D901912FEFE6F0E011C0AFE6B0E0E1
:1005200080E090E006C0F901E80FF91FE491ED9337
:1005300001961817C1F705C08D91819391509923A9
:10054000D9F7F901E10FF11DF0938800E0938700DE
:10055000612F8FE690E03BD0183019F08FEF809339
:10056000600000936E001C5F109361009AE086B3F8
:10057000857031F49150D9F710928A00109284005E
:1005800010E0992309F411E080916C00811729F0A3
:10059000112309F45BDE10936C00DF91CF911F9162
:1005A0000F910895A82FB92F80E090E041E050EA24
:1005B00060956F5F58F42D9138EF82279795879556
:1005C00010F0842795273F5FC8F3F3CF0895EADF43
:1005D0008D939D930895A6E088279927AA9569F0A1
:1005E0000197E1F3B099FCCFB09BFECF81E0992752
:1005F000A6B3019611F0A570D9F70895CF93CFB7A0
:10060000CF93B09BFECFB09B0BC0B09B09C0B09BFB
:1006100007C0B09B05C0B09B03C0B09B01C0D5C054
:100620000F92DF93C0918600DD27C357DF4F012E65
:10063000B09B03C0DF910F90E6CF2F930F931F93D2
:100640004F932FEF4F6F06B300FB20F95F933F935B
:1006500050E03BE065C016B30126502950FDC89517
:1006600056B3012700FB25F92F7306B3B1F05027CD
:10067000102710FB26F906B22230F0F000C016B3A6
:10068000012700FB27F90126502906B22430E8F59E
:100690004F77206816B30000F6CF50274F7D2062B9
:1006A00006B2102F000000C006B300265029102704
:1006B00010FB26F906B2E2CF4F7B06B3206400C0E0
:1006C000DACF01265029157006B269F14E7F2160FC
:1006D000012F16B328C0002650294D7F06B2226094
:1006E000102F29C0012650294B7F06B22460012F0C
:1006F0002DC016B301265029477F2860000006B29E
:100700002EC04F7E06B3206130C0422706B3499306
:1007100000265029102706B24FEF10FB20F9297F41
:1007200016B379F2157059F10126502906B2012746
:1007300000FB21F9237F06B371F2002650293150C6
:10074000D0F006B2102710FB22F9277E16B351F223
:1007500001265029012700FB06B223F92F7C49F21C
:10076000000006B3102710FB24F90026502906B21A
:100770002F7939F270CF10E41ABF002719C03B500F
:100780003195C31BD04010E41ABF0881033C09F126
:100790000B34F9F0209184001981110F1213EDCF61
:1007A0004A81441F093651F10D3211F0013E29F7FB
:1007B00000938B003F915F914F911F910F912F916B
:1007C000DF910F90CAB7C6FD1CCFCF91CFBFCF919D
:1007D000189500918B00002369F310918900112373
:1007E00079F534307AF130938900009385001091C7
:1007F00086003BE0311B3093860024C000918900C5
:100800000130F4F40AE54F7049F43091610034FD91
:100810001AC000936100CEE6D0E019C030916200AA
:1008200034FD11C000936200C9E7D0E010C0052775
:1008300010E000C021C0052710E0C89508BB14C017
:100840003AE501C032ED032EC0E0D0E032E017B34C
:100850001560C09A08B317BB55E020E84FEF20FFA2
:10086000052708BB279517951C3F28F70000455220
:10087000B0F720FF0527279508BB17951C3FB8F652
:1008800029913A9561F70A7F10918A00110F08BBF0
:10089000C250D04011F01093840010E41ABF0160E0
:1008A00017B31A7F402F4A7F54E05A95F1F708BBDF
:0A08B00017BB48BB7FCFF894FFCFC1
:0408BA00FF5A5A0087
:00000001FF
